{
  "contractName": "CampaignFactory",
  "abi": [
    {
      "inputs": [],
      "name": "getCampaigns",
      "outputs": [
        {
          "internalType": "address[]",
          "name": "",
          "type": "address[]"
        }
      ],
      "stateMutability": "view",
      "type": "function",
      "constant": true
    },
    {
      "inputs": [
        {
          "internalType": "uint256",
          "name": "minimum_",
          "type": "uint256"
        }
      ],
      "name": "createCampaign",
      "outputs": [],
      "stateMutability": "nonpayable",
      "type": "function"
    }
  ],
  "bytecode": "0x608060405234801561001057600080fd5b506115a1806100206000396000f3fe608060405234801561001057600080fd5b50600436106100365760003560e01c8063a3303a751461003b578063a6b0363314610057575b600080fd5b610055600480360381019061005091906101cc565b610075565b005b61005f61011c565b60405161006c919061029c565b60405180910390f35b60008133604051610085906101aa565b6100909291906102be565b604051809103906000f0801580156100ac573d6000803e3d6000fd5b50905060008190506000819080600181540180825580915050600190039060005260206000200160009091909190916101000a81548173ffffffffffffffffffffffffffffffffffffffff021916908373ffffffffffffffffffffffffffffffffffffffff160217905550505050565b606060008054806020026020016040519081016040528092919081815260200182805480156101a057602002820191906000526020600020905b8160009054906101000a900473ffffffffffffffffffffffffffffffffffffffff1673ffffffffffffffffffffffffffffffffffffffff1681526020019060010190808311610156575b5050505050905090565b6111f38061037983390190565b6000813590506101c681610361565b92915050565b6000602082840312156101e2576101e161035c565b5b60006101f0848285016101b7565b91505092915050565b60006102058383610211565b60208301905092915050565b61021a81610320565b82525050565b61022981610320565b82525050565b600061023a826102f7565b610244818561030f565b935061024f836102e7565b8060005b8381101561028057815161026788826101f9565b975061027283610302565b925050600181019050610253565b5085935050505092915050565b61029681610352565b82525050565b600060208201905081810360008301526102b6818461022f565b905092915050565b60006040820190506102d3600083018561028d565b6102e06020830184610220565b9392505050565b6000819050602082019050919050565b600081519050919050565b6000602082019050919050565b600082825260208201905092915050565b600061032b82610332565b9050919050565b600073ffffffffffffffffffffffffffffffffffffffff82169050919050565b6000819050919050565b600080fd5b61036a81610352565b811461037557600080fd5b5056fe60806040523480156200001157600080fd5b50604051620011f3380380620011f38339818101604052810190620000379190620000b5565b80600160006101000a81548173ffffffffffffffffffffffffffffffffffffffff021916908373ffffffffffffffffffffffffffffffffffffffff16021790555081600281905550505062000173565b60008151905062000098816200013f565b92915050565b600081519050620000af8162000159565b92915050565b60008060408385031215620000cf57620000ce6200013a565b5b6000620000df858286016200009e565b9250506020620000f28582860162000087565b9150509250929050565b6000620001098262000110565b9050919050565b600073ffffffffffffffffffffffffffffffffffffffff82169050919050565b6000819050919050565b600080fd5b6200014a81620000fc565b81146200015657600080fd5b50565b620001648162000130565b81146200017057600080fd5b50565b61107080620001836000396000f3fe60806040526004361061007b5760003560e01c8063937e09b11161004e578063937e09b114610152578063a9e818f51461017d578063d7bb99ba146101a6578063d7d1bbdb146101b05761007b565b80630a14439114610080578063481c6a75146100bd57806381d12c58146100e85780638a9cfd5514610129575b600080fd5b34801561008c57600080fd5b506100a760048036038101906100a29190610944565b6101d9565b6040516100b49190610b29565b60405180910390f35b3480156100c957600080fd5b506100d26101f9565b6040516100df9190610b0e565b60405180910390f35b3480156100f457600080fd5b5061010f600480360381019061010a91906109e0565b61021f565b604051610120959493929190610b44565b60405180910390f35b34801561013557600080fd5b50610150600480360381019061014b9190610971565b61030a565b005b34801561015e57600080fd5b50610167610421565b6040516101749190610c1e565b60405180910390f35b34801561018957600080fd5b506101a4600480360381019061019f91906109e0565b610427565b005b6101ae6105cd565b005b3480156101bc57600080fd5b506101d760048036038101906101d291906109e0565b610683565b005b60036020528060005260406000206000915054906101000a900460ff1681565b600160009054906101000a900473ffffffffffffffffffffffffffffffffffffffff1681565b600060205280600052604060002060009150905080600001805461024290610d78565b80601f016020809104026020016040519081016040528092919081815260200182805461026e90610d78565b80156102bb5780601f10610290576101008083540402835291602001916102bb565b820191906000526020600020905b81548152906001019060200180831161029e57829003601f168201915b5050505050908060010154908060020160009054906101000a900473ffffffffffffffffffffffffffffffffffffffff16908060020160149054906101000a900460ff16908060040154905085565b600160009054906101000a900473ffffffffffffffffffffffffffffffffffffffff1673ffffffffffffffffffffffffffffffffffffffff163373ffffffffffffffffffffffffffffffffffffffff161461036457600080fd5b600080600060055481526020019081526020016000209050838160000190805190602001906103949291906107f2565b50828160010181905550818160020160006101000a81548173ffffffffffffffffffffffffffffffffffffffff021916908373ffffffffffffffffffffffffffffffffffffffff16021790555060008160040181905550600560008154809291906103fe90610ddb565b91905055506006600081548092919061041690610ddb565b919050555050505050565b60025481565b600160009054906101000a900473ffffffffffffffffffffffffffffffffffffffff1673ffffffffffffffffffffffffffffffffffffffff163373ffffffffffffffffffffffffffffffffffffffff161461048157600080fd5b600080600083815260200190815260200160002090508060020160149054906101000a900460ff16156104e9576040517f08c379a00000000000000000000000000000000000000000000000000000000081526004016104e090610bde565b60405180910390fd5b60026004546104f89190610cab565b81600401541161053d576040517f08c379a000000000000000000000000000000000000000000000000000000000815260040161053490610bbe565b60405180910390fd5b60018160020160146101000a81548160ff0219169083151502179055508060020160009054906101000a900473ffffffffffffffffffffffffffffffffffffffff1673ffffffffffffffffffffffffffffffffffffffff166108fc82600101549081150290604051600060405180830381858888f193505050501580156105c8573d6000803e3d6000fd5b505050565b6002543411610611576040517f08c379a000000000000000000000000000000000000000000000000000000000815260040161060890610b9e565b60405180910390fd5b6001600360003373ffffffffffffffffffffffffffffffffffffffff1673ffffffffffffffffffffffffffffffffffffffff16815260200190815260200160002060006101000a81548160ff0219169083151502179055506004600081548092919061067c90610ddb565b9190505550565b600080600083815260200190815260200160002090508060020160149054906101000a900460ff16156106eb576040517f08c379a00000000000000000000000000000000000000000000000000000000081526004016106e290610bde565b60405180910390fd5b8060030160003373ffffffffffffffffffffffffffffffffffffffff1673ffffffffffffffffffffffffffffffffffffffff16815260200190815260200160002060009054906101000a900460ff161561077a576040517f08c379a000000000000000000000000000000000000000000000000000000000815260040161077190610bfe565b60405180910390fd5b60018160030160003373ffffffffffffffffffffffffffffffffffffffff1673ffffffffffffffffffffffffffffffffffffffff16815260200190815260200160002060006101000a81548160ff0219169083151502179055508060040160008154809291906107e990610ddb565b91905055505050565b8280546107fe90610d78565b90600052602060002090601f0160209004810192826108205760008555610867565b82601f1061083957805160ff1916838001178555610867565b82800160010185558215610867579182015b8281111561086657825182559160200191906001019061084b565b5b5090506108749190610878565b5090565b5b80821115610891576000816000905550600101610879565b5090565b60006108a86108a384610c5e565b610c39565b9050828152602081018484840111156108c4576108c3610ee5565b5b6108cf848285610d36565b509392505050565b6000813590506108e681610ff5565b92915050565b6000813590506108fb8161100c565b92915050565b600082601f83011261091657610915610ee0565b5b8135610926848260208601610895565b91505092915050565b60008135905061093e81611023565b92915050565b60006020828403121561095a57610959610eef565b5b6000610968848285016108d7565b91505092915050565b60008060006060848603121561098a57610989610eef565b5b600084013567ffffffffffffffff8111156109a8576109a7610eea565b5b6109b486828701610901565b93505060206109c58682870161092f565b92505060406109d6868287016108ec565b9150509250925092565b6000602082840312156109f6576109f5610eef565b5b6000610a048482850161092f565b91505092915050565b610a1681610cee565b82525050565b610a2581610cdc565b82525050565b610a3481610d00565b82525050565b6000610a4582610c8f565b610a4f8185610c9a565b9350610a5f818560208601610d45565b610a6881610ef4565b840191505092915050565b6000610a80602d83610c9a565b9150610a8b82610f05565b604082019050919050565b6000610aa3601a83610c9a565b9150610aae82610f54565b602082019050919050565b6000610ac6601c83610c9a565b9150610ad182610f7d565b602082019050919050565b6000610ae9602683610c9a565b9150610af482610fa6565b604082019050919050565b610b0881610d2c565b82525050565b6000602082019050610b236000830184610a1c565b92915050565b6000602082019050610b3e6000830184610a2b565b92915050565b600060a0820190508181036000830152610b5e8188610a3a565b9050610b6d6020830187610aff565b610b7a6040830186610a0d565b610b876060830185610a2b565b610b946080830184610aff565b9695505050505050565b60006020820190508181036000830152610bb781610a73565b9050919050565b60006020820190508181036000830152610bd781610a96565b9050919050565b60006020820190508181036000830152610bf781610ab9565b9050919050565b60006020820190508181036000830152610c1781610adc565b9050919050565b6000602082019050610c336000830184610aff565b92915050565b6000610c43610c54565b9050610c4f8282610daa565b919050565b6000604051905090565b600067ffffffffffffffff821115610c7957610c78610eb1565b5b610c8282610ef4565b9050602081019050919050565b600081519050919050565b600082825260208201905092915050565b6000610cb682610d2c565b9150610cc183610d2c565b925082610cd157610cd0610e53565b5b828204905092915050565b6000610ce782610d0c565b9050919050565b6000610cf982610d0c565b9050919050565b60008115159050919050565b600073ffffffffffffffffffffffffffffffffffffffff82169050919050565b6000819050919050565b82818337600083830152505050565b60005b83811015610d63578082015181840152602081019050610d48565b83811115610d72576000848401525b50505050565b60006002820490506001821680610d9057607f821691505b60208210811415610da457610da3610e82565b5b50919050565b610db382610ef4565b810181811067ffffffffffffffff82111715610dd257610dd1610eb1565b5b80604052505050565b6000610de682610d2c565b91507fffffffffffffffffffffffffffffffffffffffffffffffffffffffffffffffff821415610e1957610e18610e24565b5b600182019050919050565b7f4e487b7100000000000000000000000000000000000000000000000000000000600052601160045260246000fd5b7f4e487b7100000000000000000000000000000000000000000000000000000000600052601260045260246000fd5b7f4e487b7100000000000000000000000000000000000000000000000000000000600052602260045260246000fd5b7f4e487b7100000000000000000000000000000000000000000000000000000000600052604160045260246000fd5b600080fd5b600080fd5b600080fd5b600080fd5b6000601f19601f8301169050919050565b7f596f757220636f6e747269627574696f6e206d7573742062652068696768657260008201527f207468616e206d696e696d756d00000000000000000000000000000000000000602082015250565b7f546865726520617265206e6f7420656e6f75676820766f746573000000000000600082015250565b7f5265717565737420697320616c726561647920636f6d706c6574656400000000600082015250565b7f596f75206861766520616c726561647920766f746564206f6e2074686973207260008201527f6571756573740000000000000000000000000000000000000000000000000000602082015250565b610ffe81610cdc565b811461100957600080fd5b50565b61101581610cee565b811461102057600080fd5b50565b61102c81610d2c565b811461103757600080fd5b5056fea26469706673582212205df0f792ab5fe03bba2e4cb2e27cbe5bc0d3ab5bf682a4d3e3256843ac33cf0664736f6c63430008060033a2646970667358221220f91d625ff01445faa5a08d36af256c9082906832e0e75d812ace1a25efd0bdf064736f6c63430008060033",
  "immutableReferences": {},
  "source": "pragma solidity 0.8.6;\n\nimport './Campaign.sol';\n\ncontract CampaignFactory {\n    address[]  campaigns;\n    \n    function getCampaigns() public view returns(address[] memory) {\n        return campaigns;\n    }\n    \n    function createCampaign(uint256 minimum_) public {\n        Campaign newCampaign = new Campaign(minimum_, msg.sender);\n        address campaignAddress = address(newCampaign);\n        campaigns.push(campaignAddress);\n    }\n}",
  "sourcePath": "/home/taras/Projects/kickstarter/ethereum/contracts/CampaignFactory.sol",
  "compiler": {
    "name": "solc",
    "version": "0.8.6+commit.11564f7e.Emscripten.clang"
  },
  "schemaVersion": "3.4.2",
  "updatedAt": "2021-07-28T12:27:21.453Z",
  "networkType": "ethereum",
  "devdoc": {
    "kind": "dev",
    "methods": {},
    "version": 1
  },
  "userdoc": {
    "kind": "user",
    "methods": {},
    "version": 1
  }
}